S0130000447269766553797374656D2E7372656392
S11300000C9434000C9451000C9451000C94510045
S11300100C9451000C9451000C9451000C94510018
S11300200C9451000C9451000C9451000C94510008
S11300300C9451000C9451000C9451000C945100F8
S11300400C9451000C9451000C9480000C945100B9
S11300500C9451000C9451000C9451000C945100D8
S11300600C9451000C94510011241FBECFEFD8E022
S1130070DEBFCDBF11E0A0E0B1E0ECE8F1E002C0EA
S113008005900D92AC31B107D9F721E0ACE1B1E0B4
S113009001C01D92A432B207E1F70E9453000C94F0
S11300A0C4000C940000259A2D9AEEE1F1E08EE054
S11300B091E09383828380E091E0918380830E9426
S11300C09B00E1E8F0E0808188608083AFE6B0E0E7
S11300D08C9182608C93789481EA97E09093890064
S11300E08093880080818560808390E280911C01E8
S11300F08823E1F310921C0185B1892785B9F6CFD5
S11301001F920F920FB60F9211248F93EF93FF93C8
S1130110E6ECF0E0808180931D0180911D018083D5
S113012081E080931C01FF91EF918F910F900FBE9E
S11301300F901F9018951092C50087E68093C40015
S1130140E0ECF0E080818D7F808386E08093C200C4
S113015088E98093C1000895CF93C82F8A3019F499
S11301608DE00E94AC00E0ECF0E0808185FFFDCFE3
S1130170C093C600CF910895E0ECF0E0808188231D
S10F0180ECF78091C6000895F894FFCFBE
S113018C00000001000000000000BC0000000000A2
S10F019C000200000000AC0000000000A5
S9030000FC
