:100000000C9434000C9446000C9446000C9446006A
:100010000C9446000C9446000C9446000C94460048
:100020000C9446000C9446000C9446000C94690015
:100030000C9446000C9446000C9446000C94460028
:100040000C9446000C9446000C9446000C94460018
:100050000C9446000C9446000C9446000C94460008
:100060000C9446000C94460011241FBECFEFD8E03C
:10007000DEBFCDBF21E0A0E0B1E001C01D92A13004
:10008000B207E1F70E9448000C9478000C9400003D
:10009000259A2D9AE1E8F0E0808188608083AFE6C0
:1000A000B0E08C9182608C93789481EA97E0909391
:1000B00089008093880080818560808390E28091B0
:1000C00000018823E1F385B1892785B910920001E9
:1000D000F6CF1F920F920FB60F9211248F9381E0EB
:1000E000809300018F910F900FBE0F901F90189575
:0400F000F894FFCFB2
:00000001FF
